:100000000C9462000C948A000C948A000C948A0070
:100010000C948A000C948A000C948A000C948A0038
:100020000C948A000C948A000C948A000C940404AA
:100030000C948A000C948A000C948A000C948A0018
:100040000C9462030C948A000C94D2030C94AC03BD
:100050000C948A000C948A000C948A000C948A00F8
:100060000C948A000C948A000000000023002600F3
:10007000290000000000240027002A0000000000E2
:10008000250028002B0004040404040404040202D4
:100090000202020203030303030301020408102007
:1000A0004080010204081020010204081020000012
:1000B0000008000201000003040700000000000027
:1000C0000000050511241FBECFEFD8E0DEBFCDBF75
:1000D00011E0A0E0B1E0E2EFFEE002C005900D9279
:1000E000A439B107D9F722E0A4E9B1E001C01D921B
:1000F000AE36B207E1F710E0C2E6D0E004C02197C7
:10010000FE010E947107C136D107C9F70E947C0524
:100110000C9477070C94000090E0FC01E255FF4F2F
:100120002491FC01E656FF4F3491FC01EA57FF4F42
:10013000E491EE23C9F0222339F0233001F1A8F431
:10014000213019F1223029F1F0E0EE0FFF1FE458C1
:10015000FF4FA591B4918FB7F894EC91611126C02F
:1001600030953E233C938FBF08952730A9F0283067
:10017000C9F0243049F7809180008F7D03C08091C1
:1001800080008F7780938000DFCF84B58F7784BD28
:10019000DBCF84B58F7DFBCF8091B0008F778093CC
:1001A000B000D2CF8091B0008F7DF9CF3E2BDACF57
:1001B000CF93DF9390E0FC01E656FF4F24918A57DE
:1001C0009F4FFC0184918823D1F090E0880F991F04
:1001D000FC01EE58FF4FA591B491FC01E458FF4F8C
:1001E000C591D49161110EC09FB7F8948C91E22F04
:1001F000E0958E238C932881E223E8839FBFDF91D3
:10020000CF9108958FB7F894EC91E22BEC938FBFC8
:10021000F6CF3FB7F8948091A2019091A301A091ED
:10022000A401B091A50126B5A89B05C02F3F19F0E8
:100230000196A11DB11D3FBFBA2FA92F982F882766
:10024000BC01CD01620F711D811D911D42E0660F41
:10025000771F881F991F4A95D1F708958F929F9213
:10026000AF92BF92CF92DF92EF92FF924B015C016F
:100270000E9409016B017C010E9409016C197D0932
:100280008E099F09683E734081059105A8F321E01E
:10029000821A9108A108B10888EEC80E83E0D81E22
:1002A000E11CF11C81149104A104B10429F7FF9011
:1002B000EF90DF90CF90BF90AF909F908F90089578
:1002C000AF92BF92CF92DF92EF92FF920F931F9364
:1002D000CF93DF936C017B018B01040F151FEB01A2
:1002E0005E01AE18BF08C017D10759F06991D60159
:1002F000ED91FC910190F081E02DC6010995892BCB
:1003000079F7C501DF91CF911F910F91FF90EF9089
:10031000DF90CF90BF90AF900895FC01538D448D36
:10032000252F30E0842F90E0821B930B541710F0A0
:10033000CF96089501970895FC01918D828D9817AD
:1003400061F0A28DAE0FBF2FB11D5D968C91928D85
:100350009F5F9F73928F90E008958FEF9FEF0895B6
:10036000FC01918D828D981731F0828DE80FF11D7F
:10037000858D90E008958FEF9FEF0895FC01918D9A
:10038000228D892F90E0805C9F4F821B91098F7393
:100390009927089586EA91E00E94BE0121E0892B09
:1003A00009F420E0822F089580E090E0892B29F065
:1003B0000E94CA0181110C9400000895FC01A48DD3
:1003C000A80FB92FB11DA35ABF4F2C91848D90E077
:1003D00001968F739927848FA689B7892C93A0895A
:1003E000B1898C91837080648C93938D848D9813E4
:1003F00006C00288F389E02D80818F7D8083089577
:10040000EF92FF920F931F93CF93DF93EC0181E064
:10041000888F9B8D8C8D98131AC0E889F98980810B
:1004200085FF15C09FB7F894EE89FF896083E8893E
:10043000F98980818370806480839FBF81E090E030
:10044000DF91CF911F910F91FF90EF900895F62EBD
:100450000B8D10E00F5F1F4F0F731127E02E8C8D57
:100460008E110CC00FB607FCFACFE889F98980819C
:1004700085FFF5CFCE010E94DE01F1CFEB8DEC0FB1
:10048000FD2FF11DE35AFF4FF0829FB7F8940B8FB9
:10049000EA89FB8980818062CFCFCF93DF93EC0123
:1004A000888D8823B9F0AA89BB89E889F9898C915C
:1004B00085FD03C0808186FD0DC00FB607FCF7CF18
:1004C0008C9185FFF2CF808185FFEDCFCE010E9418
:1004D000DE01E9CFDF91CF910895CF92DF92EF92C5
:1004E000FF92CF93DF93EC01603282E07807CCF586
:1004F000653B710514F064EB70E0898128E830E019
:10050000281B310987FD3395220F331F220F331F1C
:100510006901330FEE08FF088A8128E532E0281BC5
:10052000310987FD3395220F331F220F331F032E0E
:10053000000C440B550B2C193D094E095F09DB01DA
:1005400077FF02C0B0E0A0E00E942C0724EB30E06F
:1005500040E050E00E940207C20ED31EE41EF51ECA
:10056000B601E881EC3070F5298188E890E0821BC3
:10057000910927FD9395880F991F880F991F681778
:1005800079077CF02A8188E592E0821B910927FD9A
:100590009395880F991F880F991F681779070CF496
:1005A000CB010297880F991F4FB7F8942E2F30E098
:1005B000F901EE0FFF1FE20FF31FED5BFD4F92837A
:1005C00081834FBFDF91CF91FF90EF90DF90CF906D
:1005D00008951F93CF93DF93EC01162F88818C3001
:1005E00008F04EC061E0812F0E94D8008881282F3A
:1005F00030E0F901EE0FFF1FE20FF31FED5BFD4F3F
:100600001F736081607C612B608319821A822CE0E9
:10061000622F0E946507829FB001112430E020E024
:10062000AB01420F531FFA01EE0FFF1FE40FF51F3E
:10063000ED5BFD4F908196FD16C02F5F3F4F2C3034
:10064000310571F781110FC01092800082E0809314
:1006500081001092850010928400B19A80916F0001
:10066000826080936F00E8818E2F90E0FC01EE0F96
:10067000FF1FE80FF91FED5BFD4F808180648083D1
:100680008881DF91CF911F910895CF93DF93FC0173
:1006900001900020E9F73197AF01481B590BBC01CD
:1006A00086EA91E00E946001EC0142E050E062E1E4
:1006B00071E086EA91E00E9460018C0F9D1FDF913E
:1006C000CF9108951F920F920FB60F9211242F937E
:1006D0003F938F939F93AF93BF9380919E0190918F
:1006E0009F01A091A001B091A10130919D0123E053
:1006F000230F2D3758F50196A11DB11D20939D01A3
:1007000080939E0190939F01A093A001B093A101BB
:100710008091A2019091A301A091A401B091A501A3
:100720000196A11DB11D8093A2019093A301A093F6
:10073000A401B093A501BF91AF919F918F913F917B
:100740002F910F900FBE0F901F90189526E8230F42
:100750000296A11DB11DD2CF1F920F920FB60F921C
:1007600011242F933F934F935F936F937F938F93B6
:100770009F93AF93BF93EF93FF9386EA91E00E941C
:10078000DE01FF91EF91BF91AF919F918F917F918A
:100790006F915F914F913F912F910F900FBE0F90EE
:1007A0001F9018951F920F920FB60F9211242F933E
:1007B0008F939F93EF93FF93E091B601F091B70170
:1007C0008081E091BC01F091BD0182FD1BC0908150
:1007D0008091BF018F5F8F732091C001821741F01C
:1007E000E091BF01F0E0EA55FE4F958F8093BF0185
:1007F000FF91EF919F918F912F910F900FBE0F90CE
:100800001F9018958081F4CF1F920F920FB60F9210
:1008100011242F933F934F935F936F937F938F9305
:100820009F93AF93BF93CF93DF93EF93FF93809109
:100830009401C0916702D0E087FF24C01092850028
:1008400010928400809194018F5F80939401809135
:100850009401082E000C990B8C179D0724F48091AD
:1008600094018C30C4F180918400909185000496AD
:1008700080349C4908F47AC080918400909185006E
:10088000049676C080919401082E000C990B8C1769
:100890009D07C4F6E09194018E2FEE0F990BFC0199
:1008A000EE0FFF1FE80FF91FED5BFD4F808186FF04
:1008B000C9CFE09194018E2FEE0F990BFC01EE0F42
:1008C000FF1FE80FF91FED5BFD4F808160E08F7324
:1008D0000E948C00B7CF2091840030918500E09178
:1008E00094018E2FEE0F990BFC01EE0FFF1FE80F06
:1008F000F91FED5BFD4F81819281820F931F9093D1
:10090000890080938800E09194018E2FEE0F990B5F
:10091000FC01EE0FFF1FE80FF91FED5BFD4F80811B
:1009200086FF11C0E09194018E2FEE0F990BFC0110
:10093000EE0FFF1FE80FF91FED5BFD4F808161E0B7
:100940008F730E948C00FF91EF91DF91CF91BF9147
:10095000AF919F918F917F916F915F914F913F9157
:100960002F910F900FBE0F901F90189580E49CE977
:1009700090938900809388008FEF80939401E3CF58
:10098000CF92DF92EF92FF920F931F93E82FF92FF0
:1009900005C0015011092109310961F190819623A7
:1009A0009417B9F305C0015011092109310911F15A
:1009B000908196239413F7CFC12CD12CE12CF12CEC
:1009C0000AC08FEFC81AD80AE80AF80A0C151D05E4
:1009D0002E053F0579F080818623841791F36C2DD5
:1009E0007D2D8E2D9F2D1F910F91FF90EF90DF9009
:1009F000CF90089560E070E080E090E01F910F914B
:100A0000FF90EF90DF90CF9008951092A90110927F
:100A1000A80188EE93E0A0E0B0E08093AA01909353
:100A2000AB01A093AC01B093AD0184E091E0909351
:100A3000A7018093A60185EC90E09093B301809389
:100A4000B20184EC90E09093B5018093B40180EC06
:100A500090E09093B7018093B60181EC90E0909381
:100A6000B9018093B80182EC90E09093BB01809330
:100A7000BA0186EC90E09093BD018093BC01109286
:100A8000BF011092C0011092C1011092C201809169
:100A900067028C3048F591E0980F9093670280933D
:100AA0006B0290E0FC01EE0FFF1FE80FF91FED5BFA
:100AB000FD4F88EB9BE092838183809167028C30AD
:100AC000B8F491E0980F909367028093680290E0E9
:100AD000FC01EE0FFF1FE80FF91FED5BFD4F88EBE8
:100AE0009BE09283818308958FEF80936B02E5CF23
:100AF0008FEF809368020895789484B5826084BDF6
:100B000084B5816084BD85B5826085BD85B5816011
:100B100085BD80916E00816080936E00109281008F
:100B2000809181008260809381008091810081604A
:100B3000809381008091800081608093800080910B
:100B4000B10084608093B1008091B0008160809397
:100B5000B00080917A00846080937A0080917A005E
:100B6000826080937A0080917A00816080937A001D
:100B700080917A00806880937A001092C10061E0D1
:100B800083E00E94D80060E082E00E94D80065E027
:100B900070E08BE692E00E94E90266E070E088E691
:100BA00092E00E94E902E091B601F091B70182E083
:100BB0008083E091B201F091B3011082E091B40121
:100BC000F091B5018FEC80831092BE01E091BA01E3
:100BD000F091BB0186E08083E091B801F091B9010A
:100BE000808180618083E091B801F091B9018081BA
:100BF00088608083E091B801F091B90180818068BC
:100C00008083E091B801F091B90180818F7D80836C
:100C100010929501109296011092970110929801EE
:100C200070E060E08BE692E00E946D0270E060E0B0
:100C300088E692E00E946D0293E2292E312C2AE38D
:100C4000822E912CA12CB12CC0E0D0E034EB432EAD
:100C5000512C612C712C60E083E00E948C0083E0B9
:100C600090E00197F1F761E083E00E948C00C10100
:100C70000197F1F760E083E00E948C00ECE9F0E07E
:100C80006491E8E8F0E08491E82FF0E0EE0FFF1FB8
:100C9000E859FF4F8591949100E412E42FE030E091
:100CA000462F0E94C004611571058105910529F048
:100CB0006F5F7F4F8F4F9F4F9F70A50194010E94E0
:100CC000020769017A01C0929901D0929A01E092DB
:100CD0009B01F0929C0162E370E080E090E00E9452
:100CE0002E0185E191E0F4E6CF16D104E104F10490
:100CF0000CF473C0D701C60184569109A109B1094A
:100D000084369105A105B105E8F484E491E00E94E0
:100D1000450388E591E00E94450389E391E00E9444
:100D2000450310929501109296011092970110922E
:100D300098016AE570E08BE692E00E946D0270E037
:100D400060E027C0D701C601885C9109A109B109FB
:100D500084369105A105B10588F584E691E00E94ED
:100D600045038EE291E00E94450389E791E00E94ED
:100D700045034092950150929601609297017092BE
:100D8000980170E060E08BE692E00E946D0264EBF7
:100D900070E088E692E00E946D0268EE73E080E009
:100DA00090E00E942E01209709F455CF0E94CA01BD
:100DB000882309F450CF0E9400004DCF8CE2C81A5E
:100DC00081E0D80AE108F108ECEBCE16E2E0DE069D
:100DD000E104F10410F786E891E00E9445038EE2F9
:100DE00091E00E94450389E391E00E94450310923F
:100DF000950110929601109297011092980170E05F
:100E000060E099CF052E97FB1EF400940E9419070D
:100E100057FD07D00E94340707FC03D04EF40C9412
:100E2000190750954095309521953F4F4F4F5F4F93
:100E3000089590958095709561957F4F8F4F9F4F46
:100E400008950E945607A59F900DB49F900DA49FF2
:100E5000800D911D11240895B7FF0C9421070E9465
:100E60002107821B930B0895A1E21A2EAA1BBB1B1C
:100E7000FD010DC0AA1FBB1FEE1FFF1FA217B30766
:100E8000E407F50720F0A21BB30BE40BF50B661F7C
:100E9000771F881F991F1A9469F760957095809540
:100EA00090959B01AC01BD01CF010895A29FB001B7
:100EB000B39FC001A39F700D811D1124911DB29F8E
:100EC000700D811D1124911D0895991B79E004C0B6
:100ED000991F961708F0961B881F7A95C9F7809579
:100EE0000895EE0FFF1F0590F491E02D0994F894FA
:020EF000FFCF32
:100EF20000000000000260018D014D02BE019C0154
:100F0200B0010D0A00434F4C4F523A204E4F20433E
:100F12004F4C4F5220444554454354454400414EA2
:100F2200474C4520313A203000414E474C45203253
:100F32003A203000434F4C4F523A2052454420440D
:100F42004554454354454400414E474C4520313AAF
:100F520020393000434F4C4F523A20424C554520E5
:100F6200444554454354454400414E474C45203284
:100F72003A2031383000554E4B4E4F574E20434F9A
:040F82004C4F52007E
:00000001FF
